:020000040000FA
:020000000528D1
:040002000034003492
:08000800642901235321E821C2
:10001000CC22E5204320E522B5216420ED201720E5
:1000200086177C237C237C2386130B2808006330EF
:10003000C5002E30C2000130C1004108C600420890
:10004000C7004708C20703182628282801302A2895
:1000500000302A28C1070130C502031930282128A1
:100060006330C5004608C1070130C50203193928AD
:100070003228FB225A3072234108A7004208A80008
:10008000F020662008001A23181398161812181169
:100090001F3099001723981718169815080041303B
:1000A00024085720250857202508572008001A2320
:1000B000981C58280000172399007C2308008B17F0
:1000C0000B178C168C1208006F200800FB223F08CB
:1000D000A7004008A800F020DF30722308002A2380
:1000E0001A239C1B742878281A231C1BCA28B028A2
:1000F0001A231C1B96287C2817235B30722353304D
:100100007223573072235D307223AE01AF01B0010C
:10011000B101B430C0000030BF002B08C4002A0871
:10012000C3002D08C2002C08C100E42817235B304F
:1001300072234E307223573072235D307223AA012E
:10014000AB01B001B1010E30C0000130BF002D087D
:10015000C4002C08C3002F08C2002E08C100E428E8
:1001600017235B30722345307223533072235D3086
:100170007223AE01AF01AC01AD015A30C0000030B6
:10018000BF003108C4003008C3002B08C2002A0891
:10019000C100E42817235B3072234E3072234530B0
:1001A00072235D307223AA01AB01AC01AD010030B6
:1001B000C0000030BF002F08C4002E08C300310863
:1001C000C2003008C100E42808001A239C121C1247
:1001D0001C119C141C10172308002A21F72008006A
:1001E000272A4D231C220800BA01BB010800F42075
:1001F00003102B08BB070318FE2800290130022931
:1002000000300229BA072A08BA072D08BB070318CD
:100210000A290C2901300E2900300E29BA072C08B2
:10022000BA072F08BB0703181629182901301A2905
:1002300000301A29BA072E08BA073108BB0703187D
:10024000222924290130262900302629BA0730081E
:10025000BA0708002F21382141214A21080033081C
:10026000AB02031901300030AA023208AA020800CA
:100270003508AD02031901300030AC023408AC027D
:1002800008003708AF02031901300030AE0236080B
:10029000AE0208003908B102031901300030B00283
:1002A0003808B00208000030B2000030B30000305F
:1002B000B4000030B5000030B6000030B7000030A8
:1002C000B8000030B90008008B1369298B108B1718
:1002D0000900F522533072234530722354307223C3
:1002E000203072235A3072234530722352307223E9
:1002F0004F3072232030722380217C23E52266292F
:10030000FC21272318221F1983291E08B2001A2353
:100310001E081723B3004E30722300222723182211
:100320001F1990291E08B4001A231E081723B500B0
:10033000453072230822272318221F199D291E08E1
:10034000B6001A231E081723B70053307223042265
:10035000272318221F19AA291E08B8001A231E08CD
:100360001723B9005730722308000C22FC212723E1
:100370001822BA291F19BA2900001E08AA001A2338
:100380001E081723AB000022272318221F19C62995
:1003900000001E08AC001A231E081723AD00082217
:1003A000272318221F19D22900001E08AE001A2385
:1003B0001E081723AF000422272318221F19DE2945
:1003C00000001E08B0001A231E081723B100080001
:1003D000ED211222272318220800F0210C22080008
:1003E00017239F171F131A231F179F179F111F11E2
:1003F0009F141F10172308009F111F129F1208003F
:100400009F151F129F1208009F111F169F120800B0
:100410009F151F169F12080017231F14080017238B
:100420001F1008000C130C170B178B170000080087
:100430001F1508001F1108000030BC000030A30089
:100440000030A4000030A5000030A6000800282AD3
:10045000643027020318382A2D2A0A30270203188D
:100460003D2A322A013027020318422A372A472A16
:10047000A7009422A622B922282AA7007F2291222F
:10048000A3222D2AA7006A227C228E22322A482A01
:10049000643028020318582A4D2A0A30280203180B
:1004A0005B2A522A0130280203185E2A572AF128B3
:1004B000A8008B22482AA80076224D2AA800612293
:1004C000522A0130A6076D2A0230A6076D2A053090
:1004D000A6076D2A0630A6076D2A0A302602831861
:1004E000722ACB2A0A30A602762ACB2A0130A50727
:1004F000822A0230A507822A0530A507822A063003
:10050000A507822A0A3025028318872ACB2A0A30B7
:10051000A5028B2ACB2A0130A407972A0230A40710
:10052000972A0530A407972A0630A407972A0A308D
:10053000240283189C2ACB2A0A30A402A02ACB2AA0
:100540000130A307AC2A0230A307AC2A0530A30769
:10055000AC2A0630A307AC2A0A302302030883180A
:10056000B22ACB2A0A30A302B62ACB2A0130BC0712
:10057000C22A0230BC07C22A0530BC07C22A063094
:10058000BC07C22A0A303C0203088318C82ACB2AB7
:100590000A30A302CB2A0800D422DA22E022E52284
:1005A000EB22F022F5220800003087002323080008
:1005B00007140800D422870038308800232308005D
:1005C000D4220F30880023230800D4220130880071
:1005D0002323F5220800D4220630880023230800B4
:1005E000D4224030880023230800D42280308800A1
:1005F0002323D8220800D422C03088002323D82205
:1006000008001A23803087000030880001308600FF
:10061000172306140030870000308800860011235D
:1006200008001A2301178B170B16172308008312D3
:10063000031308008316031308008312031708002E
:100640008316031708000715272307110800A00BBE
:10065000272B0800E5224430722369307223723060
:1006600072236530722363307223743072236930D1
:1006700072236F3072236E3072233A307223080077
:10068000413072236E307223673072236C307223D4
:10069000653072233A30722308002B3072233C08F5
:1006A00057207023722323085720702372232408B5
:1006B00057207023722325085720702372232608A1
:1006C0005720702372232C305720080082074134B2
:1006D00042344334443445344634473448340800C3
:1006E000303E0800880023230800762B071087146B
:1006F0008618762B7B2B0800A00B7C2BA10B7C2B68
:020700000800EF
:00000001FF
